:03000000020006F5
:03005F0002000399
:030003000200995F
:1000620085820885830985F00AF50B909170E4F585
:10007200F01200FAAC82AD83AEF0FF8C008D018EDF
:10008200028F031CBCFF091DBDFF051EBEFF011F21
:10009200E8494A4B70E5227E007F00D280D2A02040
:1000A200B141900001E4F5F0C007C006120062D031
:1000B20006D0070EBE00010F30B12A7405C39EFCA4
:1000C200E49FFDC3EC9402ED648094804017D280DB
:1000D200C2A0900001E4F5F0120062D2A07E007F7F
:1000E200008002D280BE05B7BF00B4C28030B1AF7B
:0800F200D2807E007F0080A790
:06003500E478FFF6D8FD9F
:100013007900E94400601B7A0090016C780175A0B7
:1000230000E493F2A308B8000205A0D9F4DAF2754C
:02003300A0FF2C
:1000FA00AAF0FBE5828508F0A4FCADF0E58385084B
:10010A00F0A42DFDE435F0FEE5828509F0A42DFD6D
:10011A00E5F03EFEE433FFEA8508F0A42EFEE5F0A2
:10012A003FFFE5838509F0A42EFEE5F03FFFE58257
:10013A00850AF0A42EFEE5F03FFFEB8508F0A42F18
:10014A00FFEA8509F0A42FFFE583850AF0A42FFFB3
:0E015A00E582850BF0A42F8EF08D838C82221F
:10003B007800E84400600A790175A000E4F309D860
:10004B00FC7800E84400600C7900900001E4F0A318
:04005B00D8FCD9FAFA
:0D00060075810B120168E5826003020003A2
:04016800758200227A
:00000001FF
